:020000040800F2
:1000000000000220756D00086D6600087366000828
:10001000796600087F660008856600080000000019
:10002000000000000000000000000000C106010800
:100030008B66000800000000110901087909010819
:10004000C56D0008C56D0008C56D0008C56D0008C8
:10005000C56D0008C56D0008C56D0008C56D0008B8
:10006000C56D0008C56D0008C56D0008C56D0008A8
:10007000C56D0008C56D0008C56D0008C56D000898
:10008000C56D0008C56D0008C56D0008C56D000888
:10009000C56D0008C56D0008C56D0008C56D000878
:1000A000C56D000899660008C56D0008C56D00089B
:1000B000C56D0008C56D0008AD660008C56D000877
:1000C000C56D0008C56D0008C56D0008C56D000848
:1000D000C56D0008C5660008C56D0008C56D00083F
:1000E000C56D0008C56D0008C56D0008C56D000828
:1000F000C56D0008C56D0008C56D0008C56D000818
:10010000C56D0008C56D0008C56D0008C56D000807
:10011000C56D0008C56D0008C56D0008C56D0008F7
:10012000D9660008ED66000801670008C56D000883
:10013000C56D000815670008C56D0008C56D00088D
:10014000C56D0008C56D0008C56D0008C56D0008C7
:10015000C56D0008C56D0008C56D00082967000859
:10016000C56D0008C56D0008C56D0008C56D0008A7
:10017000C56D0008C56D0008C56D000800000000D1
:08018000C56D0008C56D000803
:1001900010B5054C237833B9044B13B10448AFF3C1
:1001A00000800123237010BD8C050020000000009A
:1001B000B033020808B5034B1BB103490348AFF342
:1001C000008008BD0000000090050020B033020848
:1001D000034613F8012B002AFBD1181A0138704787
:1001E00001F0FF01102A2BDB10F0070F08D010F8E8
:1001F000013B013A8B422DD010F0070F42B3F6D1EC
:10020000F0B441EA012141EA014122F007047FF004
:1002100000070023F0E80256083C85EA010586EA5B
:10022000010685FA47F5A3FA87F586FA47F6A5FA97
:1002300087F68EB9EED1F0BC01F0FF0102F00702A3
:1002400032B110F8013B013A83EA010313B1F8D14E
:100250000020704701387047002D06BF354603382F
:10026000073815F0010F07D1013015F4807F02BF68
:10027000013015F4C03F0130F0BC0138704700BFB9
:1002800081F0004102E000BF83F0004330B54FEA47
:1002900041044FEA430594EA050F08BF90EA020FB4
:1002A0001FBF54EA000C55EA020C7FEA645C7FEA47
:1002B000655C00F0E2804FEA5454D4EB5555B8BF6A
:1002C0006D420CDD2C4480EA020281EA030382EADB
:1002D000000083EA010180EA020281EA0303362D6D
:1002E00088BF30BD11F0004F4FEA01314FF4801C40
:1002F0004CEA113102D0404261EB410113F0004F52
:100300004FEA03334CEA133302D0524263EB430308
:1003100094EA050F00F0A780A4F10104D5F1200EA6
:100320000DDB02FA0EFC22FA05F2801841F1000101
:1003300003FA0EF2801843FA05F359410EE0A5F1D5
:1003400020050EF1200E012A03FA0EFC28BF4CF006
:10035000020C43FA05F3C01851EBE37101F00045BC
:1003600007D54FF0000EDCF1000C7EEB00006EEBC9
:100370000101B1F5801F1BD3B1F5001F0CD3490853
:100380005FEA30004FEA3C0C04F101044FEA4452AA
:1003900012F5800F80F09A80BCF1004F08BF5FEA31
:1003A000500C50F1000041EB045141EA050130BD11
:1003B0005FEA4C0C404141EB0101013C28BFB1F523
:1003C000801FE9D291F0000F04BF01460020B1FA6E
:1003D00081F308BF2033A3F10B03B3F120020CDA41
:1003E0000C3208DD02F1140CC2F10C0201FA0CF01F
:1003F00021FA02F10CE002F11402D8BFC2F1200C84
:1004000001FA02F120FA0CFCDCBF41EA0C01904039
:10041000E41AA2BF01EB0451294330BD6FEA040482
:100420001F3C1CDA0C340EDC04F11404C4F120026D
:1004300020FA04F001FA02F340EA030021FA04F37F
:1004400045EA030130BDC4F10C04C4F1200220FAD6
:1004500002F001FA04F340EA0300294630BD21FA14
:1004600004F0294630BD94F0000F83F4801306BFDA
:1004700081F480110134013D4EE77FEA645C18BFCE
:100480007FEA655C29D094EA050F08BF90EA020F65
:1004900005D054EA000C04BF1946104630BD91EA5D
:1004A000030F1EBF0021002030BD5FEA545C05D160
:1004B0004000494128BF41F0004130BD14F580049F
:1004C0003CBF01F5801130BD01F0004545F0FE4113
:1004D00041F470014FF0000030BD7FEA645C1ABF48
:1004E000194610467FEA655C1CBF0B46024650EA7F
:1004F000013406BF52EA033591EA030F41F40021AB
:1005000030BD00BF90F0000F04BF0021704730B530
:100510004FF4806404F132044FF000054FF0000105
:1005200050E700BF90F0000F04BF0021704730B5C6
:100530004FF4806404F1320410F0004548BF40429B
:100540004FF000013EE700BF42004FEAE2014FEAF0
:1005500031014FEA02701FBF12F07F4393F07F4FCB
:1005600081F06051704732F07F4208BF704793F0CE
:100570007F4F04BF41F40021704730B54FF46074E1
:1005800001F0004521F000411CE700BF50EA0102E4
:1005900008BF704730B54FF000050AE050EA01028D
:1005A00008BF704730B511F0004502D5404261EBFD
:1005B00041014FF4806404F132045FEA915C3FF43E
:1005C000D8AE4FF003025FEADC0C18BF03325FEADB
:1005D000DC0C18BF033202EBDC02C2F1200300FA8C
:1005E00003FC20FA02F001FA03FE40EA0E0021FAB1
:1005F00002F11444BDE600BF70B54FF0FF0C4CF49F
:10060000E06C1CEA11541DBF1CEA135594EA0C0F50
:1006100095EA0C0F00F0DEF82C4481EA030621EA8B
:100620004C5123EA4C5350EA013518BF52EA0335C6
:1006300041F4801143F4801338D0A0FB02CE4FF078
:100640000005E1FB02E506F00042E0FB03E54FF0A8
:100650000006E1FB03569CF0000F18BF4EF0010EA0
:10066000A4F1FF04B6F5007F64F5407404D25FEA9C
:100670004E0E6D4146EB060642EAC62141EA55514F
:100680004FEAC52040EA5E504FEACE2EB4F1FD0C91
:1006900088BFBCF5E06F1ED8BEF1004F08BF5FEA0F
:1006A000500E50F1000041EB045170BD06F00046C1
:1006B00046EA010140EA020081EA0301B4EB5C046E
:1006C000C2BFD4EB0C0541EA045170BD41F4801166
:1006D0004FF0000E013C00F3AB8014F1360FDEBF8B
:1006E000002001F0004170BDC4F10004203C35DA67
:1006F0000C341BDC04F11404C4F1200500FA05F3EA
:1007000020FA04F001FA05F240EA020001F000428A
:1007100021F0004110EBD37021FA04F642EB060100
:100720005EEA430E08BF20EAD37070BDC4F10C042A
:10073000C4F1200500FA04F320FA05F001FA04F2EE
:1007400040EA020001F0004110EBD37041F10001DA
:100750005EEA430E08BF20EAD37070BDC4F12005E5
:1007600000FA05F24EEA020E20FA04F301FA05F24D
:1007700043EA020321FA04F001F0004121FA04F2F5
:1007800020EA020000EBD3705EEA430E08BF20EAC5
:10079000D37070BD94F0000F0FD101F000464000FF
:1007A00041EB010111F4801F08BF013CF7D041EA81
:1007B000060195F0000F18BF704703F00046520085
:1007C00043EB030313F4801F08BF013DF7D043EA56
:1007D0000603704794EA0C0F0CEA135518BF95EA0C
:1007E0000C0F0CD050EA410618BF52EA4306D1D193
:1007F00081EA030101F000414FF0000070BD50EAB2
:10080000410606BF1046194652EA430619D094EA3B
:100810000C0F02D150EA013613D195EA0C0F05D125
:1008200052EA03361CBF104619460AD181EA030179
:1008300001F0004141F0FE4141F470014FF0000031
:1008400070BD41F0FE4141F4780170BD70B54FF0CC
:10085000FF0C4CF4E06C1CEA11541DBF1CEA13554C
:1008600094EA0C0F95EA0C0F00F0A7F8A4EB05042E
:1008700081EA030E52EA03354FEA013100F0888025
:100880004FEA03334FF0805545EA131343EA1263EE
:100890004FEA022245EA111545EA10654FEA0026A3
:1008A0000EF000419D4208BF964244F1FD0404F55C
:1008B000407402D25B084FEA3202B61A65EB0305B8
:1008C0005B084FEA32024FF480104FF4002CB6EB75
:1008D000020E75EB030E22BFB61A754640EA0C00F5
:1008E0005B084FEA3202B6EB020E75EB030E22BF35
:1008F000B61A754640EA5C005B084FEA3202B6EB76
:10090000020E75EB030E22BFB61A754640EA9C0034
:100910005B084FEA3202B6EB020E75EB030E22BF04
:10092000B61A754640EADC0055EA060E18D04FEAC2
:10093000051545EA16754FEA06164FEAC30343EA62
:1009400052734FEAC2025FEA1C1CC0D111F4801F2F
:100950000BD141EA00014FF000004FF0004CB6E728
:1009600011F4801F04BF01430020B4F1FD0C88BFC7
:10097000BCF5E06F3FF6AFAEB5EB030C04BFB6EBD2
:10098000020C5FEA500C50F1000041EB045170BDC5
:100990000EF0004E4EEA113114EB5C04C2BFD4EBF2
:1009A0000C0541EA045170BD41F480114FF0000E76
:1009B000013C90E645EA060E8DE60CEA135594EAF2
:1009C0000C0F08BF95EA0C0F3FF43BAF94EA0C0FF5
:1009D0000AD150EA01347FF434AF95EA0C0F7FF46A
:1009E00025AF104619462CE795EA0C0F06D152EABE
:1009F00003353FF4FDAE1046194622E750EA4106A2
:100A000018BF52EA43067FF4C5AE50EA41047FF4B2
:100A10000DAF52EA43057FF4EBAE12E74FF0FF3C17
:100A200006E000BF4FF0010C02E000BF4FF0010CE8
:100A30004DF804CD4FEA410C7FEA6C5C4FEA430C61
:100A400018BF7FEA6C5C1BD001B050EA410C0CBFB0
:100A500052EA430C91EA030F02BF90EA020F002012
:100A6000704710F1000F91EA030F58BF994208BF79
:100A700090422CBFD8176FEAE37040F00100704736
:100A80004FEA410C7FEA6C5C02D150EA013C07D18D
:100A90004FEA430C7FEA6C5CD6D152EA033CD3D0D8
:100AA0005DF8040B704700BF8446104662468C46D2
:100AB0001946634600E000BF01B5FFF7B7FF002805
:100AC00048BF10F1000F01BD4DF808EDFFF7F4FF2E
:100AD0000CBF012000205DF808FB00BF4DF808EDB9
:100AE000FFF7EAFF34BF012000205DF808FB00BFDC
:100AF0004DF808EDFFF7E0FF94BF012000205DF8FE
:100B000008FB00BF4DF808EDFFF7CEFF94BF0120B2
:100B100000205DF808FB00BF4DF808EDFFF7C4FFAB
:100B200034BF012000205DF808FB00BF4FEA410CF4
:100B30007FEA6C5C02D150EA013C0AD14FEA430CD7
:100B40007FEA6C5C02D152EA033C02D14FF0000014
:100B500070474FF0010070474FEA410212F5001252
:100B600015D211D56FF47873B3EB625212D94FEAF4
:100B7000C12343F0004343EA505311F0004F23FADE
:100B800002F018BF404270474FF00000704750EA33
:100B9000013005D111F0004008BF6FF000407047F0
:100BA0004FF00000704700BF4A0011D212F500124A
:100BB00011D20DD56FF47873B3EB62520ED44FEAB5
:100BC000C12343F0004343EA505323FA02F0704735
:100BD0004FF00000704750EA013002D14FF0FF3073
:100BE00070474FF0000070474FEA4102B2F1E04316
:100BF00024BFB3F5001CDCF1FE5C0DD901F0004C04
:100C00004FEAC0024CEA5070B2F1004F40EB830053
:100C100008BF20F00100704711F0804F21D113F17F
:100C20003872BCBF01F00040704741F480114FEAB8
:100C30005252C2F11802C2F1200C10FA0CF320FA41
:100C400002F018BF40F001004FEAC1234FEAD3235E
:100C500003FA0CFC40EA0C0023FA02F34FEA4303C8
:100C6000CCE77FEA625307D150EA01331EBF4FF051
:100C7000FE4040F44000704701F0004040F0FE406C
:100C800040F40000704700BF53B94AB9002908BFBB
:100C900000281CBF4FF0FF314FF0FF3000F0A4B927
:100CA000ADF1080C6DE904CE00F03CF8DDF804E08D
:100CB000DDE9022304B0704738B500220023044662
:100CC0000D46FFF70BFF28B920462946BDE83840FE
:100CD00000F00AB8204605F1004100F005F8404256
:100CE00061EB410138BD00BFD0B50C4B0022064678
:100CF0000F46FFF781FCFFF757FF0446FFF702FCA2
:100D0000074B0022FFF778FC02460B463046394677
:100D1000FFF7BAFAFFF748FF2146D0BD0000F03DCB
:100D20000000F0412DE9F047089D04468C46002B59
:100D300040F083808A42174647D9B2FA82F242B124
:100D4000C2F1200024FA00F09140974040EA010CE3
:100D500094404FEA1748230CBCFBF8F61FFA87FEB5
:100D600008FB16C143EA014306FB0EF1994209D97B
:100D7000FB1806F1FF3080F01981994240F216818C
:100D8000023E3B445B1AA4B2B3FBF8F008FB1033FD
:100D900044EA034400FB0EFEA64509D93C1900F1C4
:100DA000FF3380F00581A64540F2028102383C44C1
:100DB00040EA0640A4EB0E0400261DB1D4400023F7
:100DC000C5E900433146BDE8F08702B9FFDEB2FA5B
:100DD00082F2002A50D1CB1B4FEA174E1FFA87F838
:100DE0000126B3FBFEFC210C0EFB1C3341EA034140
:100DF00008FB0CF38B4207D979180CF1FF3002D2B3
:100E00008B4200F2E9808446C91AA3B2B1FBFEF01E
:100E10000EFB101143EA014408FB00F8A04507D976
:100E20003C1900F1FF3302D2A04500F2D9801846E8
:100E3000A4EB080440EA0C40BFE78B4209D9002D1F
:100E400000F0B1800026C5E9000130463146BDE81A
:100E5000F087B3FA83F6002E4AD18B4202D3824246
:100E600000F2B880841A61EB030101208C46002D4A
:100E7000A8D0C5E9004CA5E7C2F1200320FA03F68B
:100E8000974001FA02F04FEA174ED9403043030C65
:100E9000B1FBFEF61FFA87F80EFB161143EA014379
:100EA00006FB08F1994204FA02F409D9FB1806F18D
:100EB000FF3C80F08D80994240F28A80023E3B44A4
:100EC0005B1A81B2B3FBFEF00EFB103341EA034123
:100ED00000FB08F38B4207D9791800F1FF3C73D26D
:100EE0008B4271D902383944CB1A40EA064678E77A
:100EF000C6F1200C03FA06F422FA0CF31C4320FA84
:100F00000CF701FA06F34FEA144E21FA0CF11F43D5
:100F10003B0CB1FBFEF91FFA84F80EFB191143EAF2
:100F2000014109FB08FA8A4502FA06F200FA06F3C3
:100F300008D9611809F1FF3048D28A4546D9A9F18C
:100F400002092144A1EB0A01BFB2B1FBFEF00EFB86
:100F5000101147EA014700FB08F8B84507D9E7191F
:100F600000F1FF312ED2B8452CD90238274440EA8F
:100F70000940A7EB0807A0FB02894F45C646494632
:100F80001AD317D05DB1B3EB0E0267EB010707FA76
:100F90000CFCF2404CEA0202F740C5E900270026AB
:100FA0003146BDE8F0872E4628460BE70646E9E6BF
:100FB0001846FDE64345E5D2B8EB020E69EB0401A5
:100FC0000138DFE70846D2E760468DE78146B9E79A
:100FD000664675E730464AE7ACF1020C394413E740
:100FE00002383C4424E700BF704700BF80B500AF23
:100FF00006220449044806F059F804480AF0D8F8D3
:1010000000BF80BD00700020A07200200072002090
:1010100080B500AF00F002F800BF80BD80B483B09F
:1010200000AF4FF000037B60154B1B78002B20D0E6
:1010300000233B600EE0134A3B689B001344D3ED52
:10104000007A97ED017A77EE277AC7ED017A3B684F
:1010500001333B603B68272BEDDD97ED017ADFED37
:101060000A6AC7EE267A094BC3ED027A044B0022C6
:101070001A7000BF0C37BD465DF8047B704700BF97
:10108000586F0020606F0020000020422075002073
:1010900080B48BB000AF7860454B5B8907EE903A27
:1010A000F8EE677AC7ED097A424B1B8807EE903A53
:1010B000F8EE677A9FED407A67EE876A97ED097AD6
:1010C000C6EE877AC7ED097A394B1B8807EE903A4E
:1010D000F8EEE77A9FED387A67EE876A97ED097A3E
:1010E000C6EE877AC7ED087A314B5B8807EE903AF7
:1010F000F8EEE77A9FED307A67EE876A97ED097A26
:10110000C6EE877AC7ED077A294BDB8807EE903A5F
:10111000F8EEE77A9FED287A67EE876A97ED097A0D
:10112000C6EE877AC7ED067A97ED067AD7ED077A8D
:1011300077EE677AC7ED057A97ED077AD7ED087AEB
:1011400077EE677AC7ED047AD7ED057A9FED1B7AC3
:1011500067EE876A97ED047AC6EE877AC7ED037A61
:10116000D7ED037A9FED157A77EEC77A144B1B788B
:101170009FED147A67EE877A134A9B001344C3ED00
:10118000007A0F4B1B780133DAB20D4B1A700C4BFF
:101190001B78272B02D90A4B00221A700B4B012215
:1011A0001A7000BF2C37BD465DF8047B704700BF46
:1011B000007000202A7AFF1F333353400000C842DA
:1011C000596F0020CD3B2640606F0020586F0020F3
:1011D00080B483B000AF03460A46FB8013467B71A0
:1011E0007B79012202FA03F31AB2B7F906301343EE
:1011F0001BB29BB218460C37BD465DF8047B7047A6
:1012000080B500AF00F016FB844B1B7B03F001039D
:10121000DBB2002B05D0814B9B7BC3F30003DAB21A
:1012200004E07F4B1B7803F00103DAB27D490B78B1
:1012300062F300030B70794B1B7B03F00203DBB2FC
:10124000002B05D0754B9B7BC3F34003DAB204E05F
:10125000734B5B7803F00103DAB272490B7862F3E7
:1012600041030B706D4B1B7B03F00403DBB2002BBF
:1012700005D06A4B9B7BC3F38003DAB204E0684B72
:101280009B7803F00103DAB266490B7862F38203BC
:101290000B70624B1B7B03F00803DBB2002B05D005
:1012A0005E4B9B7BC3F3C003DAB204E05C4BDB789C
:1012B00003F00103DAB25B490B7862F3C3030B70EE
:1012C000564B1B7B03F01003DBB2002B05D0534BB6
:1012D0009B7BC3F30013DAB204E0514B1B7903F09C
:1012E0000103DAB24F490B7862F304130B704B4BD6
:1012F0001B7B03F02003DBB2002B05D0474B9B7B0D
:10130000C3F34013DAB204E0454B5B7903F0010309
:10131000DAB244490B7862F345130B703F4B1B7BE9
:1013200003F04003DBB2002B05D03C4B9B7BC3F3A7
:101330008013DAB204E03A4B9B7903F00103DAB28E
:1013400038490B7862F386130B70344B1B7B23F008
:101350007F03DBB2002B05D0304B9B7BC3F3C01364
:10136000DAB204E02E4BDB7903F00103DAB22D4947
:101370000B7862F3C7130B70284B5B7B03F0010300
:10138000DBB2002B05D0254BDB7BC3F30003DAB2C5
:1013900004E0234B1B7A03F00103DAB221494B78B6
:1013A00062F300034B701D4B5B7B03F00203DBB267
:1013B000002B05D0194BDB7BC3F34003DAB204E00A
:1013C000174B5B7A03F00103DAB216494B7862F3EC
:1013D00041034B70114B5B7B03F00403DBB2002B2A
:1013E00005D00E4BDB7BC3F38003DAB204E00C4B79
:1013F0009B7A03F00103DAB20A494B7862F3820365
:101400004B70064B5B7B03F00803DBB2002B0BD069
:10141000024BDB7BC3F3C003DAB20AE07474002032
:101420000C700020207500203C4BDB7A03F0010398
:10143000DAB23B494B7862F3C3034B70384B1B78ED
:10144000C3F30003D9B2374A137861F30003137072
:10145000334B1B78C3F34003D9B2324A137861F39C
:10146000410313702E4B1B78C3F38003D9B22D4A6E
:10147000137861F382031370294B1B78C3F3C00305
:10148000D9B2284A137861F3C3031370244B1B7835
:10149000C3F30013D9B2234A137861F30413137012
:1014A0001F4B1B78C3F34013D9B21E4A137861F364
:1014B000451313701A4B1B78C3F38013D9B2194A22
:1014C000137861F386131370154B1B78C3F3C013A5
:1014D000D9B2144A137861F3C7131370104B5B78B9
:1014E000C3F30003D9B20F4A537861F3000353707A
:1014F0000B4B5B78C3F34003D9B20A4A537861F3CC
:1015000041035370064B5B78C3F38003D9B2054A9D
:10151000537861F38203537000BF80BD0C700020CC
:10152000207500201C70002080B500AF744B1B7C20
:1015300003F00103DBB2002B05D0714B9B7CC3F39E
:101540000003DAB204E06F4B1B78C3F30003DAB296
:101550006D498B7862F300038B70694B1B7C03F041
:101560000203DBB2002B05D0654B9B7CC3F3400329
:10157000DAB204E0634B1B78C3F34003DAB262498A
:101580008B7862F341038B705D4B1B7C03F004038B
:10159000DBB2002B05D05A4B9B7CC3F38003DAB23D
:1015A00004E0584B1B78C3F38003DAB256498B78BA
:1015B00062F382038B70524B1B7C03F00803DBB297
:1015C000002B05D04E4B9B7CC3F3C003D9B200E087
:1015D00000214D4A937861F3C3039370484B1B7C01
:1015E00003F01003DBB2002B05D0454B9B7CC3F30B
:1015F0000013D9B200E00021434A937861F3041349
:1016000093703F4B1B7C03F02003DBB2002B05D013
:101610003B4B9B7CC3F34013D9B200E000213A4A14
:10162000937861F345139370354B1B7C03F04003B3
:10163000DBB2002B05D0324B9B7CC3F38013D9B2B5
:1016400000E00021304A937861F3861393702C4BAD
:101650001B7C23F07F03DBB2002B05D0284B9B7C47
:10166000C3F3C013D9B200E00021274A937861F395
:10167000C7139370224B5B7C03F00103DBB2002B9A
:1016800005D01F4BDB7CC3F30003D9B200E000217F
:101690001D4AD37861F30003D370194B5B7C03F0D0
:1016A0000203DBB2002B05D0154BDB7CC3F34003F8
:1016B000D9B200E00021144AD37861F34103D3701A
:1016C0000F4B5B7C03F00403DBB2002B05D00C4B0B
:1016D000DB7CC3F38003D9B200E000210A4AD3784F
:1016E00061F38203D370064B5B7C03F00803DBB22B
:1016F000002B0BD0024BDB7CC3F3C003D9B206E056
:101700007474002018700020207500200021454AC4
:10171000D37861F3C303D370424B9B78C3F30003C8
:10172000DBB21A468021404808F04EFA3D4B9B78C8
:10173000C3F34003DBB21A464FF480713A4808F015
:1017400043FA384B9B78C3F38003DBB21A464FF45D
:101750000071354808F038FA324B9B78C3F3C00368
:10176000DBB21A464FF480612F4808F02DFA2D4B5A
:101770009B78C3F30013DBB21A464FF400612A488A
:1017800008F022FA274B9B78C3F34013DBB21A46CA
:101790004FF48051244808F017FA224B9B78C3F38A
:1017A0008013DBB21A464FF400511F4808F00CFAC0
:1017B0001C4B9B78C3F3C013DBB21A464FF4804135
:1017C000194808F001FA174BDB78C3F30003DBB2CA
:1017D0001A464FF40041144808F0F6F9114BDB7833
:1017E000C3F34003DBB21A464FF480610F4808F0A0
:1017F000EBF90C4BDB78C3F38003DBB21A464FF4F2
:1018000080710B4808F0E0F9064BDB78C3F3C003A6
:10181000DBB21A464FF40071054808F0D5F900BF55
:1018200080BD00BF2075002000100240000402406F
:10183000000C024080B584B000AF4FF480716A485C
:1018400008F0AAF90346002B0CBF01230023DBB2EA
:101850003B704FF40071644808F09EF90346002B7A
:101860000CBF01230023DBB27B7001215F4808F02D
:1018700093F90346002B0CBF01230023DBB2BB709E
:1018800002215A4808F088F90346002B0CBF0123B7
:101890000023DBB2FB700421544808F07DF90346B5
:1018A000002B0CBF01230023DBB23B7108214F4802
:1018B00008F072F90346002B0CBF01230023DBB2B2
:1018C0007B711021494808F067F90346002B0CBFD3
:1018D00001230023DBB2BB712021444808F05CF9EE
:1018E0000346002B0CBF01230023DBB2FB71402118
:1018F0003E4808F051F90346002B0CBF012300239A
:10190000DBB23B724FF40051394808F045F9034609
:10191000002B0CBF01230023DBB27B724FF480410C
:10192000334808F039F90346002B0CBF012300238C
:10193000DBB2BB724FF400412D4808F02DF903468D
:10194000002B0CBF01230023DBB2FB720023FB60E2
:1019500041E03A46FB6813441B78002B0FD0254A20
:10196000FB6813441B78042B28BF0423DBB201332C
:10197000D9B2204AFB6813440A461A7011E01D4A86
:10198000FB6813441B78002B06D01A4AFB681344EB
:101990001B78013BDAB200E000221649FB680B44D9
:1019A0001A70144AFB6813441B78042B05D9124A99
:1019B000FB68134401221A700AE00E4AFB681344C4
:1019C0001B78002B04D10C4AFB68134400221A70C8
:1019D000FB680133FB60FB680B2BBADD00BF00BF67
:1019E0001037BD4680BD00BF000402400010024019
:1019F00000080240207000200C70002080B500AF6D
:101A000000220121064808F0DFF8642005F0E6FA1C
:101A100001220121024808F0D7F800BF80BD00BFB5
:101A20000000024080B5CCB002AF3B1D18603B1DEA
:101A30001B681B88A7F826310022002120200FF008
:101A40003FFAC7F82001D7F82031002B5BD0B7F858
:101A500026311A462E49D7F820010FF0EBFA03463B
:101A600087F81F3197F91F31002B48D107F588738C
:101A70001946D7F820010FF091FC034687F81E3174
:101A800097F91E31002BF1D1D7F810310833C7F880
:101A90001831D7F810319B89A7F81631D7F81031D3
:101AA00007F10A0207F58671184611F049F8D7F8D0
:101AB0000C0107F10A031B8807F10C02194600F01C
:101AC00059F80346A7F81431B7F81431002B10D099
:101AD000D7F81031B7F8142107F10C010193B7F8CA
:101AE00016310093D7F81831D7F8200100F012F81A
:101AF000BCE7D7F81031184610F0B8FFB6E7D7F8B2
:101B000020010FF07BFA00BF07F59477BD4680BD3A
:101B1000206F020880B586B000AFF860B9603B6006
:101B20001346FB803B681B687B61786A10F09EFF60
:101B300010F088FF78627B6A3A8C9A813B687A69F8
:101B40001A60FB881A46B968786A10F0AFFF03463E
:101B5000FB7497F91330002B08D13B8C3A68796AF3
:101B6000F8680FF095FC786A10F080FF00BF183716
:101B7000BD4680BD80B586B000AFF8600B467A6088
:101B80007B81798901237A68F86803F05DF87861D0
:101B90007B69002B01D07B690DE07B89DBB27A6821
:101BA0001946F86800F096FC78617B69002B01D03B
:101BB000512300E0002318461837BD4680BD0000C1
:101BC00080B584B000AF03463960FB801346BB800C
:101BD0000023FB6003233B72FB881B0A9BB2DBB232
:101BE0007B72FB88DBB2BB7200224FF400411148CC
:101BF00007F0EAFF07F10801C82303220E4808F0A6
:101C000068FD0346FB60BA88C82339680A4808F0B3
:101C10009CFE03461A46FB681343FB6001224FF407
:101C20000041044807F0D0FFFB6818461037BD4656
:101C300080BD00BF000002404872002080B586B021
:101C400000AF03463960FB801346BB8000237B61F5
:101C500000233B610023FB6006233B7200224FF40C
:101C600000413F4807F0B0FF07F10801C8230122F7
:101C70003C4808F02EFD03467B6101224FF40041F1
:101C8000374807F0A1FF05233B7227E000224FF4FD
:101C90000041334807F098FF07F10801C8230122EB
:101CA000304808F016FD03461A467B6913437B61F2
:101CB00007F10801C82301222A4808F046FE03461E
:101CC0001A467B6913437B6101224FF4004124488B
:101CD00007F07AFF3B7A03F002033B613B69002B7C
:101CE00004D1FB685A1CFA60632BCFDD3B69002BE3
:101CF00003D16FF001037B612CE002233B72FB8870
:101D00001B0A9BB2DBB27B72FB88DBB2BB72002288
:101D10004FF40041124807F057FF07F10801C823AC
:101D20000322104808F0D5FC03461A467B6913438A
:101D30007B61BA88C82339680A4808F0CAFC0346A0
:101D40001A467B6913437B6101224FF4004104482A
:101D500007F03AFF7B6918461837BD4680BD00BFC3
:101D6000000002404872002080B485B000AFF860E7
:101D7000B9607A60FB68074A1A60BB68064A1A6055
:101D80007B6880221A6000BF1437BD465DF8047B73
:101D9000704700BFA80500205C06002080B588B011
:101DA00002AF00237B610EF0A5FF78610023009352
:101DB0004FF480631D4A1E491E481CF02FF90EF097
:101DC00099FF7861002300934FF480631A4A184901
:101DD0001A481CF023F90EF08DFF78610023009360
:101DE0004FF400730022164916481CF017F90EF044
:101DF00081FF786103237B601023BB6007F1100330
:101E0000FB603B1D002118460CF0EAF903460E4A20
:101E1000136000230093802300220C490C481CF01F
:101E2000FDF800BF1837BD4680BD00BF0000002090
:101E3000251A0008C833020802000020D433020823
:101E4000116A0008E03302082C700020551E0008BB
:101E5000EC33020890B589B000AF786000233B6195
:101E6000404A0221404800F035FB38613B69002BB5
:101E700001D000F00FFB00F07DF800F087F900F0D2
:101E8000FBF900F0A9FA0023BB614AE000237B6163
:101E900041E03649BA6913465B0013445B00CA1837
:101EA0007B6913441B78002B32D03149BA69134641
:101EB0005B0013445B007A69134451F82330002B14
:101EC00026D02B49BA6913465B0013445B007A693C
:101ED000134451F823402649BA6913465B00134462
:101EE0005B007A69134451F823301846FEF770F905
:101EF0000346DBB21B4A1946204600F0EBFA386174
:101F00003B69002B04D000F0C5FA386902F030F9C3
:101F10007B6901337B617B69052BBADDBB690133CA
:101F2000BB61BB69052BB1DD05F04CF80346FB60D6
:101F3000FA68FB69D31AB3F5FA7F0FDD094801F09F
:101F4000D1FC03463B613B69002B05D000F0A2FAAF
:101F50004FF0FF3002F00CF9FB68FB6102200BF040
:101F6000E8FD88E73070002014340208EC080020F7
:101F70000400002080B500AF814B1B785A1C814BB8
:101F800083FB0231D317C91A0B465B000B445B007D
:101F9000D11ACAB27A4B1A70794B1B78052B00F212
:101FA000ED8001A252F823F0C11F00080B200008A9
:101FB000552000089F200008E92000083321000870
:101FC00001224FF48061704807F0FEFD00224FF4BB
:101FD00000616D4807F0F8FD00224FF480516A4817
:101FE00007F0F2FD00224FF40051674807F0ECFDC6
:101FF00000224FF48041644807F0E6FD00224FF4D0
:102000000041614807F0E0FDB8E000224FF4806134
:102010005D4807F0D9FD01224FF400615A4807F0EE
:10202000D3FD00224FF48051574807F0CDFD002228
:102030004FF40051544807F0C7FD00224FF480418F
:10204000514807F0C1FD00224FF400414E4807F00F
:10205000BBFD93E000224FF480614B4807F0B4FDD4
:1020600000224FF40061484807F0AEFD01224FF412
:102070008051454807F0A8FD00224FF40051424826
:1020800007F0A2FD00224FF480413F4807F09CFD7D
:1020900000224FF400413C4807F096FD6EE000221C
:1020A0004FF48061384807F08FFD00224FF4006143
:1020B000354807F089FD00224FF48051324807F07F
:1020C00083FD01224FF400512F4807F07DFD0022CF
:1020D0004FF480412C4807F077FD00224FF4004177
:1020E000294807F071FD49E000224FF4806126483D
:1020F00007F06AFD00224FF40061234807F064FDF9
:1021000000224FF48051204807F05EFD00224FF47A
:1021100000511D4807F058FD01224FF480411A4834
:1021200007F052FD00224FF40041174807F04CFD24
:1021300024E000224FF48061134807F045FD00229F
:102140004FF40061104807F03FFD00224FF480512A
:102150000D4807F039FD00224FF400510A4807F0FE
:1021600033FD00224FF48041074807F02DFD012286
:102170004FF40041044807F027FD00BF00BF80BDB9
:1021800080700020ABAAAA2A000C024098B500AFCC
:10219000364B1B781C460121354807F0FDFC0346F1
:1021A0001946344A23465B0023445B0013440A4625
:1021B0001A702E4B1B781C4602212D4807F0ECFCB0
:1021C000034619462B4A23465B0023445B00134415
:1021D00001330A461A70254B1B781C4604212448FB
:1021E00007F0DAFC03461946224A23465B002344E3
:1021F0005B00134402330A461A701C4B1B781C46C2
:1022000008211B4807F0C8FC03461946194A234613
:102210005B0023445B00134403330A461A70134BDC
:102220001B781C461021124807F0B6FC03461946DD
:10223000104A23465B0023445B00134404330A46E0
:102240001A700A4B1B781C462021094807F0A4FC91
:1022500003461946074A23465B0023445B001344A8
:1022600005330A461A7000BF98BD00BF8070002079
:10227000000C02405C08002080B582B000AF002353
:102280007B6013E000233B600AE07B68DBB23A68C6
:10229000D2B21146184600F011F83B6801333B609A
:1022A0003B68052BF1DD7B6801337B607B68052B88
:1022B000E8DD00BF00BF0837BD4680BD90B482B0E6
:1022C00000AF03460A46FB711346BB71FA79B97930
:1022D0003E4813465B0013445B0003440B441B78E9
:1022E000002B1BD0FA79B979394813465B001344A7
:1022F0005B0003440B441B780F2B28BF0F23DBB27A
:10230000FA79B9790133DCB2314813465B001344E2
:102310005B0003440B4422461A7024E0FA79B97931
:102320002B4813465B0013445B0003440B441B78AB
:10233000002B0CD0FA79B979254813465B00134479
:102340005B0003440B441B78013BD8B200E0002043
:10235000FA79B9791E4C13465B0013445B002344A1
:102360000B4402461A70FA79B979194813465B0092
:1023700013445B0003440B441B78102B0AD1FA79F9
:10238000B979144813465B0013445B0003440B44C3
:1023900001221A70FA79B9790D4813465B0013448B
:1023A0005B0003440B441B78002B0AD1FA79B979FE
:1023B000084813465B0013445B0003440B440022AF
:1023C0001A7000BF0837BD4690BC70475C080020FB
:1023D000C80800208008002080B483B000AF00232C
:1023E0007B6047E000233B603EE027497A68134664
:1023F0005B0013445B00CA183B6813441B78012B35
:102400000DD122497A6813465B0013445B00CA1859
:102410003B6813441B78002B01D1012300E000230B
:10242000D8B21B497A6813465B0013445B00CA1894
:102430003B68134402461A7013497A6813465B00DE
:1024400013445B00CA183B68134418780F497A6834
:1024500013465B0013445B00CA183B6813440246F2
:102460001A703B6801333B603B68052BBDDD7B6820
:1024700001337B607B68052BB4DD00BF00BF0C37E8
:10248000BD465DF8047B704780080020A40800204A
:10249000EC08002080B500AF00220021094801F0BF
:1024A00055FF00220121084801F050FF00220221BF
:1024B000064801F04BFF00220321054801F046FFCA
:1024C00000BF80BD30700020447000205870002094
:1024D0006C70002080B586B000AFF8600B467A6063
:1024E000FB72FB687B610522BD4978691CF0D4FF53
:1024F0000346002B07D100F0A3F90346002B40F060
:102500005681002368E10322B64978691CF0C4FFB4
:102510000346002B07D100F045FE0346002B40F098
:102520004681002358E10622AF4978691CF0B4FFC8
:102530000346002B07D101F033FC0346002B40F08B
:102540003681002348E10222A84978691CF0A4FFE3
:102550000346002B07D100F01FFD0346002B40F07F
:102560002681002338E10522A14978691CF094FFF7
:102570000346002B07D100F081FC0346002B40F0FE
:102580001681002328E104229A4978691CF084FF0F
:102590000346002B07D100F0E3FB0346002B40F07D
:1025A0000681002318E10422934978691CF074FF26
:1025B0000346002B07D100F067FB0346002B40F0D9
:1025C000F680002308E102228C4978691CF064FF40
:1025D0000346002B07D100F04DFD0346002B40F0D1
:1025E000E6800023F8E00222854978691CF054FF58
:1025F0000346002B07D100F04FFD0346002B40F0AF
:10260000D6800023E8E002227E4978691CF044FF6E
:102610000346002B07D100F071FD0346002B40F06C
:10262000C6800023D8E00222774978691CF034FF85
:102630000346002B07D100F097FD0346002B40F026
:10264000B6800023C8E00722704978691CF024FF97
:102650000346002B08D1002001F056FB0346002B57
:1026600040F0A5800023B7E00722694978691CF093
:1026700013FF0346002B08D1012001F045FB034660
:10268000002B40F094800023A6E00722614978697E
:102690001CF002FF0346002B08D1022001F034FB9E
:1026A0000346002B40F08380002395E007225A491F
:1026B00078691CF0F1FE0346002B07D1032001F0DE
:1026C00023FB0346002B72D1002385E007225349E8
:1026D00078691CF0E1FE0346002B07D1042001F0CD
:1026E00013FB0346002B62D1002375E007224C49FF
:1026F00078691CF0D1FE0346002B07D1052001F0BC
:1027000003FB0346002B52D1002365E00722454915
:1027100078691CF0C1FE0346002B07D1062001F0AA
:10272000F3FA0346002B42D1002355E007223E492D
:1027300078691CF0B1FE0346002B07D1072001F099
:10274000E3FA0346002B32D1002345E00722374944
:1027500078691CF0A1FE0346002B07D1082001F088
:10276000D3FA0346002B22D1002335E0072230495B
:1027700078691CF091FE0346002B07D1092001F077
:10278000C3FA0346002B12D1002325E00322294976
:1027900078691CF081FE0346002B06D101F05AFB3C
:1027A0000346002B03D1002316E0002314E07B68CE
:1027B000214A1846114650231A461BF0A3FD1F4B11
:1027C00093F90030B3F1FF3F02D14FF0FF3303E044
:1027D0001A4B93F90030283318461837BD4680BD90
:1027E000F4340208FC3402080035020808350208F7
:1027F0000C350208143502081C350208243502087D
:10280000283502082C350208303502083435020814
:102810003C350208443502084C350208543502089C
:102820005C350208643502086C350208743502080C
:102830007C3502088435020884700020C300002023
:10284000B0B582B000AF00237B606D4B1B68002BDE
:102850001FD16C4BFF221A70694B6B4A1A606B4B8D
:1028600000221A706A4B03221A706A4B00221A70F7
:10287000694B6A4A1A606948FDF7AAFC0346DAB256
:10288000674B1A705E4B1B68184600F0BDFC0123B5
:10289000B2E05B4B1B68634A934200F0AC80584B3C
:1028A0001A685A4B1B7819460B465B000B44DB0039
:1028B00013447B60574B1B78002B40F094807B685F
:1028C0001B79002B00F097801422002156481BF042
:1028D00041FD00F0ADF87B681B7A002B0FD17868C2
:1028E00001F084FB4B4B01221A707B68DB795AB2F2
:1028F000444B1A70786800F087FC01237CE07B6809
:102900001B69002B01D1002376E0142200214648E8
:102910001BF020FD7B685B7D002B02D0012B0BD0D0
:1029200015E07B68DB681B8807EE903AF8EE677A63
:102930003E4BC3ED007A0AE07B68DB681B6807EE5C
:10294000903AF8EE677A394BC3ED007A00BF374B07
:10295000D3ED007A7B681A697B681B7D19461046A7
:10296000B0EE670A00F064FF38603B68002B19D1B5
:102970007B681B691B682D4A13607B68DB791A46EC
:10298000294BD4187B681B695D687B681B695B6891
:102990001846FDF71DFC03461A46294620461BF043
:1029A000B1FC15E03B681B68204A13607B68DB794B
:1029B0001A461D4BD4183B685D683B685B68184637
:1029C000FDF706FC03461A46294620461BF09AFCF2
:1029D0000C4BFF221A700F4B01221A70786800F01E
:1029E00013FC012308E0786801F08EF8786800F0A5
:1029F0000BFC012300E0002318460837BD46B0BD9C
:102A000010090020C30000205403002014090020F6
:102A100050710020150900204C710020B8000020E2
:102A2000D47000202C010020D8700020180900204C
:102A300080B483B000AF00237B6016E000233B60CE
:102A40000DE00F497A6813469B0013449B00CA1897
:102A50003B68134400221A703B6801333B603B68BB
:102A6000132BEEDD7B6801337B607B68032BE5DD98
:102A700000BF00BF0C37BD465DF8047B704700BF48
:102A800084700020B0B5A8B002AFFFF7D1FF6D4B46
:102A90005B8A002B3ED06C4A07F1780307CA03C358
:102AA0001A70684B9B8A1946684B9B8F07F1780216
:102AB00000930B46664967481CF050FC664A07F1D4
:102AC0006C0307CA83E80700644B07F158041D46EE
:102AD0000FCD0FC42B6823805A4BDB8A002B0CD000
:102AE0005C4B03F1280507F158040FCC286069609E
:102AF000AA60EB6023882B821FE0524B9B89002B3E
:102B00001BD0504B9B6907F16C02554955481CF08E
:102B100025FC12E0544A07F14C0307CA03C31A808C
:102B2000484B9B8A1946494B9B8F07F14C020093F7
:102B30000B46474947481CF011FC424B9B89002B30
:102B400011D04A4B07F13C040FCB07C42380414B03
:102B500003F1140407F13C0307CB20606160A2601D
:102B60001B88A38155E0374BDB89002B14D0404BE9
:102B700007F128041D460FCD0FC42B682370354B79
:102B800003F1140507F128040FCC28606960AA60DE
:102B9000EB6023782B743CE02A4B1B8A002B1BD064
:102BA000344B07F114041D460FCD0FC42B681A4691
:102BB000228002341B0C2370264B03F1140507F10D
:102BC00014040FCC28606960AA60EB602388A278A7
:102BD0002B821346AB741CE0274B1B88002B18D0AC
:102BE000264B3C461D460FCD0FC42B681A4622804B
:102BF00002341B0C2370174B03F114053C460FCC19
:102C000028606960AA60EB602388A2782B82134653
:102C1000AB741B4B07F184041D460FCD0FC42B680A
:102C20002370184B1D4607F184040FCC286069609F
:102C3000AA60EB6023782B74012318469837BD46B1
:102C4000B0BD00BF207500209C35020874740020C0
:102C50008835020884700020A8350208B4350208BF
:102C600094350208AC700020C8350208D43502083B
:102C7000E4350208F83502083C7500200C360208DD
:102C800020360208C370002080B582B000AF2D4B03
:102C90001B68002B01D1002350E02B4B1B78002B2D
:102CA0001FD0284B1A68294B1B7819460B465B002E
:102CB0000B44DB0013447B607B681B7A002B01D044
:102CC00000233BE0224B93F900301A46214B13447A
:102CD0000021184601F05CF9786800F095FA0123AC
:102CE0002CE01A4B1B781A461B4B1B78013B9A426F
:102CF00001DB002322E0134B1B68184A934209D1E1
:102D0000124B1B780133DAB2104B1A7000F086FBBD
:102D1000034613E00D4B1B780133DAB20B4B1A70EC
:102D2000084B1A68094B1B7819460B465B000B448D
:102D3000DB001344184600F067FA012318460837F1
:102D4000BD4680BD1009002015090020140900208F
:102D5000C3000020D8700020507100202C010020FA
:102D6000B0B582B000AF00237B603E4B1B78002BD8
:102D700001D1002371E03C4B1B68002B01D10023E3
:102D80006BE0394B1A68394B1B7819460B465B00D0
:102D90000B44DB0013443B603B681B7A002B4FD095
:102DA0003B681B69002B01D1002356E0304BD3ED6B
:102DB000007A3B681A693B681B7D19461046B0EEE5
:102DC000670A00F061FD78607B68B3F1FF3F01D1D5
:102DD000002342E07B68002B03D13B681B7D013B55
:102DE00001E07B68013B7B603B681A697B68DB0024
:102DF00013441B681E4A1360142200211D481BF057
:102E0000A9FA3B68DB791A461A4BD4183B681A6951
:102E10007B68DB0013445D683B681A697B68DB00F4
:102E200013445B681846FDF7D3F903461A46294652
:102E300020461CF043FB386800F0E6F901230CE063
:102E400001223968002000F0F5FE03465AB20A4B11
:102E50001A70386800F0D8F9012318460837BD46C3
:102E6000B0BD00BF15090020100900201409002082
:102E700018090020D8700020C3000020B0B582B02F
:102E800000AF00237B603E4B1B78002B01D1002359
:102E900072E03C4B1B68002B01D100236CE0394BE6
:102EA0001A68394B1B7819460B465B000B44DB0054
:102EB00013443B603B681B7A002B50D03B681B6976
:102EC000002B01D1002357E0304BD3ED007A3B6853
:102ED0001A693B681B7D19461046B0EE670A00F080
:102EE000D3FC78607B68B3F1FF3F01D1002343E05E
:102EF0003B681B7D013B7A689A4202D07B680133B4
:102F000000E000237B603B681A697B68DB001344A8
:102F10001B681E4A1360142200211D481BF01AFA78
:102F20003B68DB791A461A4BD4183B681A697B68F0
:102F3000DB0013445D683B681A697B68DB0013445F
:102F40005B681846FDF744F903461A4629462046B1
:102F50001CF0B4FA386800F057F901230CE00122A4
:102F60003968012000F066FE03465AB2094B1A7018
:102F7000386800F049F9012318460837BD46B0BD4E
:102F8000150900201009002014090020180900204C
:102F9000D8700020C300002080B582B000AF2F4B56
:102FA0001B68002B01D1002353E02D4B1B78002B15
:102FB0001FD02A4B1A682B4B1B7819460B465B0017
:102FC0000B44DB0013447B607B681B7A002B01D031
:102FD00000233EE0244B93F900301A46234B134460
:102FE0000121184600F0D4FF786800F00DF90123A4
:102FF0002FE01C4B1B78002B01D1002329E0174B3D
:103000001B681B4A934210D1164B1B78002B04D02F
:10301000144B1B78013BDBB201E0124B1B78114AC9
:10302000137000F0FBF9034613E00E4B1B78013BD5
:10303000DAB20C4B1A70094B1A680A4B1B78194606
:103040000B465B000B44DB001344184600F0DCF831
:10305000012318460837BD4680BD00BF1009002077
:103060001509002014090020C3000020D87000209A
:103070002C01002080B500AF054BFF221A70054BD4
:1030800000221A60FFF7FEFC0346184680BD00BF11
:10309000C30000201009002080B500AF0E4BFF22B6
:1030A0001A700E4B0E4A1A600E4B00221A700E4B0D
:1030B00005221A700D4B00221A700D4B0D4A1A6032
:1030C0000D4B11221A70054B1B68184600F09CF836
:1030D0000123184680BD00BFC30000201009002056
:1030E0004C02002014090020507100201509002016
:1030F0004C710020A4000020D470002080B500AFE7
:10310000104BFF221A70104B104A1A60104B00220D
:103110001A70104B06221A700F4B00221A700F4BB8
:103120000F4A1A600E48FDF753F80346DAB20D4B0A
:103130001A70054B1B68184600F066F80123184604
:1031400080BD00BFC300002010090020C402002081
:103150001409002050710020150900204C71002036
:1031600094000020D470002080B500AF084BFF22EF
:103170001A70084B084A1A60084B00221A70084B54
:1031800000221A7000F04AF90346184680BD00BFBD
:10319000C3000020100900202C0100201509002088
:1031A0001409002080B500AF134BFF221A70134B97
:1031B0001B68002B01D100231BE0114B1B78002B57
:1031C00006D10E4B00221A60FFF75CFC034610E0AC
:1031D0000B4B00221A70094B1A680A4B1B781946D0
:1031E0000B465B000B44DB001344184600F00CF860
:1031F0000123184680BD00BFC30000201009002035
:103200001509002014090020B0B592B000AF786015
:10321000FFF70EFC684B1B68684A1278194668482D
:103220001BF070F87B6819687B685B791A46654803
:103230001BF068F87B681B7A002B69D0624B1B7807
:10324000002B18D07B68DB791A46604BD4187B685A
:10325000DB791A465E4BD5187B68DB791A465C4BE6
:1032600013441846FCF7B4FF03461A462946204685
:103270001CF024F950E04FF000037B647B685B7D19
:10328000002B02D0012B0AD013E07B68DB681B887F
:1032900007EE903AF8EE677AC7ED117A09E07B689D
:1032A000DB681B6807EE903AF8EE677AC7ED117A93
:1032B00000BF7B681A697B681B7D1946104697ED35
:1032C000110A00F0B5FA38643B6C002B0DD17B6815
:1032D000DB791A463D4B13443E491A460B4603CB55
:1032E000106051601B78137216E07B68DB791A4618
:1032F000364BD4183B6C5D683B6C5B681846FCF73A
:1033000067FF03461A46294620461CF0D7F803E01B
:103310000221786800F030FB7B681B79002B34D0E9
:10332000294B1B78002B10D12B4A07F1340307CA15
:1033300003C31A800233120C1A70284807F13403B1
:103340000B2219461CF0BAF831E0254A07F1280390
:1033500007CA03C31A801A4B03F13C0207F1280382
:1033600003CB106051601B8813811E4A07F11C03B8
:1033700007CA03C31A701C4B1A4607F11C0303CB80
:10338000106051601B78137211E0184B1B68184ACB
:1033900093420CD1174B07F10C040FCB07C42370D9
:1033A000154807F10C030D2219461AF0ABFF00BFB8
:1033B0004837BD46B0BD00BF4C710020D47000201E
:1033C000847000209870002015090020AC70002047
:1033D000D87000203436020840360208C970002038
:1033E0004C36020858360208CB7000201009002025
:1033F0005403002064360208C870002080B483B0F3
:1034000000AF786039603A687B689342A8BF134682
:1034100018460C37BD465DF8047B704780B584B014
:1034200000AF00F06FF8FFF703FB304A3B1D92E856
:10343000030018600433198002330A0C1A702C4BF5
:103440001A463B1D1868106099889B79918093718A
:10345000284B1B78002B01D1012342E0264B1B781F
:103460001A46244B1B78013B9A420BDB214B1B78FD
:10347000002B04D01F4B1B78013BDBB200E0002384
:103480001D4A13701C4B1B78FB601BE0FB6801336B
:10349000194A12789A1A13469B0013449B00144A47
:1034A0009818164AFB6812F833301946134AFB681D
:1034B000DB0013445B680A4611491BF04FFFFB68B1
:1034C0000133FB600B4B1B781A460B4B1B78033305
:1034D00019461046FFF792FF0246FB689342D5DB80
:1034E000012318461037BD4680BD00BF7C36020858
:1034F000847000205171002014090020EC7000201D
:103500007436020880B400AF9C4B00221A709C4BAA
:103510001B7F03F00103DBB2002B17D0974B1B7806
:10352000964A12780133D9B2964B03F83210934B76
:103530001B781846944B1A689249C3000B445A6092
:103540008E4B1B780133DAB28C4B1A708C4B1B7F7D
:1035500003F00203DBB2002B17D0884B1B78874A9D
:1035600012780133D9B2874B03F83210834B1B78A2
:103570001846854B9A698349C3000B445A607F4BB8
:103580001B780133DAB27D4B1A707D4B1B7F03F041
:103590000403DBB2002B17D0784B1B78774A1278E4
:1035A0000133D9B2774B03F83210744B1B781846AD
:1035B000754B1A6B7349C3000B445A606F4B1B78F1
:1035C0000133DAB26D4B1A706D4B1B7F03F00803A9
:1035D000DBB2002B17D0694B1B78684A1278013395
:1035E000D9B2684B03F83210644B1B781846664B0F
:1035F0009A6C6449C3000B445A60604B1B780133DA
:10360000DAB25E4B1A705E4B1B7F03F01003DBB225
:10361000002B17D0594B1B78584A12780133D9B276
:10362000584B03F83210554B1B781846564B1A6E00
:103630005449C3000B445A60504B1B780133DAB233
:103640004E4B1A704E4B1B7F03F02003DBB2002B56
:1036500017D04A4B1B78494A12780133D9B2494BEB
:1036600003F83210454B1B781846474B9A6F454973
:10367000C3000B445A60414B1B780133DAB23F4B15
:103680001A703F4B1B7F03F04003DBB2002B18D0B6
:103690003A4B1B78394A12780133D9B2394B03F8C7
:1036A0003210364B1B781846374BD3F890203549EB
:1036B000C3000B445A60314B1B780133DAB22F4BF5
:1036C0001A702F4B1B7F23F07F03DBB2002B18D027
:1036D0002A4B1B78294A12780133D9B2294B03F8B7
:1036E0003210264B1B781846274BD3F8A8202549C3
:1036F000C3000B445A60214B1B780133DAB21F4BD5
:103700001A701F4B5B7F03F00103DBB2002B18D054
:103710001A4B1B78194A12780133D9B2194B03F8A6
:103720003210164B1B781846174BD3F8C02015499A
:10373000C3000B445A60114B1B780133DAB20F4BB4
:103740001A700F4B5B7F03F00203DBB2002B21D01A
:103750000A4B1B78094A12780133D9B2094B03F896
:103760003210064B1B781846074BD3F8D820054972
:10377000C3000B445A60014B1B7807E051710020D5
:1037800020750020EC7000202C0100200133DAB2FB
:10379000234B1A70234B5B7F03F00403DBB2002B37
:1037A00018D01F4B1B781E4A12780133D9B21E4B1A
:1037B00003F832101A4B1B7818461C4BD3F8F02034
:1037C0001949C3000B445A60154B1B780133DAB218
:1037D000134B1A70134B5B7F03F00803DBB2002B13
:1037E00018D00F4B1B780E4A12780133D9B20E4B0A
:1037F00003F832100A4B1B7818460C4BD3F80821FB
:103800000949C3000B445A60054B1B780133DAB2F7
:10381000034B1A7001231846BD465DF8047B7047C0
:103820005171002020750020EC7000202C01002038
:1038300080B487B000AF87ED030AB8600B46FB7118
:1038400000233B6100237B6113E07B69DB00BA68E6
:1038500013443B613B69D3ED007A97ED037AB4EEF4
:10386000677AF1EE10FA01D13B6907E07B69013319
:103870007B61FB797A699A42E7DB002318461C37A3
:10388000BD465DF8047B704780B487B000AF87ED1C
:10389000030AB8600B46FB7100233B6100237B6188
:1038A00013E07B69DB00BA6813443B613B69D3EDED
:1038B000007A97ED037AB4EE677AF1EE10FA01D14F
:1038C0007B6908E07B6901337B61FB797A699A4205
:1038D000E7DB4FF0FF3318461C37BD465DF8047B2D
:1038E0007047000080B584B000AF78600023FB73A0
:1038F0001C4B1B68002B04D1FFF7C4F80346FB7375
:103900001DE0184B1B68184A934204D1FFF786FD4F
:103910000346FB7313E0134B1B68144A93420ED10A
:10392000104B1A68124B1B7819460B465B000B4470
:10393000DB0013441846FFF767FC0123FB73FB7B96
:10394000002B09D07B680B4A1846114650231A46B3
:103950001AF0D8FC012300E0002318461037BD46BA
:1039600080BD00BF100900202C010020540300205E
:103970001409002084700020B0B586B002AF7860D2
:103980000B46FB7000237B81584B1B78002B12D019
:10399000FA7813469B0013449B00554A1344554A3A
:1039A000116855689468D06819605D609C60D86043
:1039B0001169196197E07B685B7D042B00F29280AE
:1039C00001A252F823F000BF253A0008773A000818
:1039D000493A00089B3A0008DD390008FA78134696
:1039E0009B0013449B00424A13447A68D27998188A
:1039F0007B68DB681B8819467B68DB6802331B88A1
:103A00001C467B68DB6804331B881A467B68DB68CE
:103A100006331B880193009223460A4636491BF061
:103A20009DFC60E0FA7813469B0013449B00304AEB
:103A300013447A68D27998187B68DB681B881A4629
:103A40002E491BF08BFC4EE0FA7813469B00134482
:103A50009B00274A13447A68D2799C187B68DB68FC
:103A60001B681846FCF770FD02460B4624492046A9
:103A70001BF074FC37E0FA7813469B0013449B005C
:103A80001B4A13447A68D27998187B68DB681B68F4
:103A90001A461A491BF062FC25E07B68DB681B882C
:103AA0007B810023FB601AE07A890121FB6801FA1F
:103AB00003F31340002BCCBF01230023DBB27B7246
:103AC0007B68DB791A46FB6813440E4A13447A7A02
:103AD0000A4918461BF042FCFB680133FB60FB6897
:103AE0000B2BE1DD00BF1037BD46B0BD150900202E
:103AF00084700020D87000208436020898360208AE
:103B00009C360208AC70002080B584B000AF7860AD
:103B1000424B1B78002B7CD07B681B7A002B27D074
:103B20007B685B7D022B1DD0022B66DC002B02D054
:103B3000012B0CD061E03A4BD3ED007A7B68DB6857
:103B4000FCEEE77A17EE902A92B21A8058E0344BD6
:103B5000D3ED007A7B68DB68FCEEE77A17EE902AFB
:103B60001A604DE07B68DB682D4A12681A6047E0F6
:103B70000023FB607B685B7D042B40D801A252F8D8
:103B800023F000BFD93B0008B93B0008A13B000867
:103B9000FF3B0008993B0008786800F0A7F92FE088
:103BA0007B68DB791A461F4BD0187B68DB681A46A6
:103BB0001D491BF0F3FB23E07B68DB791A46194BA8
:103BC000134407F10C02194918461BF0E7FBFA6889
:103BD0007B68DB681A6013E07B68DB791A46114B5F
:103BE000134407F10C02114918461BF0D7FBFA6881
:103BF0007B68DB6892B21A8002E000BF00E000BF81
:103C000002F002FA054B00221A70094BFF221A70CB
:103C100000E000BF1037BD4680BD00BF1509002081
:103C200018090020D87000209C3602089836020837
:103C3000C300002080B485B000AF03463960FB713B
:103C40001346BB712D4B1B78002B02D14FF0FF3375
:103C50004DE03B681B7A002B02D04FF0FF3346E06B
:103C6000FB79002B06D0264B93F900301A46BB791E
:103C7000134405E0224B93F900301A46BB79D31A5E
:103C8000FB603B68DB791A46FB68934202DA3B68CB
:103C9000DB79FB60FB68132B05DD1323FB6002E07F
:103CA000FB68013BFB60174AFB6813441B78002B41
:103CB00005D13B68DB791A46FB689342F0DC3B6830
:103CC0005B7D042B0FD10F4AFB6813441B782E2B0E
:103CD0000BD1FB79002B02D0FB68013301E0FB68BC
:103CE000013BFB6001E000BF00E000BFFB6818463D
:103CF0001437BD465DF8047B704700BF15090020EE
:103D0000C3000020D870002080B584B000AF034607
:103D1000FB71FB79092B01D9002332E00023FB73EF
:103D20001A4B1B78002B01D100232AE0184B1B688B
:103D3000002B01D1002324E0154B1A68154B1B788A
:103D400019460B465B000B44DB001344BB60BB68A9
:103D50005B7D042B00BF104B93F900301A46FB79B2
:103D60003033D9B20D4B99540122B9680120FFF7C5
:103D700061FF03465AB2084B1A70B868FFF744FA5D
:103D8000012318461037BD4680BD00BF150900202D
:103D90001009002014090020C3000020D870002062
:103DA00080B582B000AF264B1B78002B01D10023D9
:103DB00041E0244B1B68002B01D100233BE0214B49
:103DC0001A68214B1B7819460B465B000B44DB003D
:103DD00013443B603B685B7D042B01D100232AE048
:103DE0003B689B791A463B68DB791344013B174AD1
:103DF0003021D154164B93F90030FB7109E0FB7967
:103E00005A1CFB791149895C104AD154FB79013362
:103E1000FB71FA793B689B7919463B68DB790B4467
:103E2000013B9A42EBDB094B0022DA7400BF386891
:103E3000FFF7EAF9012318460837BD4680BD00BFE9
:103E4000150900201009002014090020D870002056
:103E5000C300002080B582B000AF0023FB711E4B71
:103E60001B78002B01D1002331E01C4B1B68002B79
:103E700001D100232BE0194B1A68194B1B78194606
:103E80000B465B000B44DB0013443B603B685B7DEF
:103E9000022B01D000231AE03B685B7D042B01D18B
:103EA000002314E000BF0F4B93F900301A460E4B6D
:103EB0002E219954012239680120FFF7BBFE0346E9
:103EC0005AB2084B1A703868FFF79EF9012318465A
:103ED0000837BD4680BD00BF15090020100900202D
:103EE00014090020C3000020D870002080B586B0DF
:103EF00000AF78607B68DB791A46184B13447B610E
:103F000000233B6121E007F10C031A46144978694C
:103F10001BF044FA2E2178691BF0B1FA78617B69B5
:103F2000002B02D07B6901337B61FB685A42DBB214
:103F3000D2B258BF53427A68D1683A6952000A44F3
:103F40009BB213803B6901333B613B69032BDADD94
:103F500000BF00BF1837BD4680BD00BFD87000202D
:103F60009836020880B483B000AF78607B681B7815
:103F70002F2B05D97B681B78392B01D8012300E052
:103F80000023DBB218460C37BD465DF8047B704752
:103F900080B582B000AF78600B46FB707868FFF7A1
:103FA000E1FF0346002B1CD0FB78002B0CD07B6874
:103FB0001B78382B04D87B681B780133DAB200E019
:103FC00030227B681A700DE07B681B78302B04D997
:103FD0007B681B78013BDAB200E039227B681A70FB
:103FE00000E000BF0837BD4680BD0000B0B584B01A
:103FF00002AF78607B68002B65D07B685B7D042B0B
:1040000063D801A252F823F0794000085B40000811
:1040100097400008CB4000081D4000087B68DB7912
:104020001A462C4BD0187B68DB681B8819467B68C6
:10403000DB6802331B881C467B68DB6804331B8803
:104040001A467B68DB6806331B880193009223467F
:104050000A4621491BF082F938E07B68DB791A4671
:104060001C4BD0187B689B791A467B68DB681B6801
:104070001A491BF073F929E07B68DB791A46154B66
:10408000D0187B689B791A467B68DB681B881349CC
:104090001BF064F91AE07B68DB791A460D4BD418E3
:1040A0007B689B791D467B68DB681B681846FCF7BC
:1040B0004BFA02460B46CDE900232A460849204622
:1040C0001BF04CF902E000BF00E000BF0837BD461E
:1040D000B0BD00BFD870002084360208A0360208A8
:1040E000A836020880B500AF01224FF400411F48F6
:1040F00005F06AFD002210211C4805F065FD0F2027
:1041000002F06CFF0021332000F092F8012002F051
:1041100065FF0021322000F08BF8012002F05EFFE5
:1041200000212A2000F084F8022002F057FF00212D
:10413000082000F07DF8012002F050FF002101204E
:1041400000F076F8022002F049FF0021062000F07E
:104150006FF8012002F042FF00210C2000F068F807
:10416000012002F03BFF00BF80BD00BF0004024001
:1041700080B584B000AF78607B68B3F1FF3F02D0B8
:104180007B684F2B07DD00210C2000F051F8012047
:1041900002F024FF47E000210F2000F049F8012041
:1041A00002F01CFF7B68214A82FB0312D210DB174E
:1041B000D31ABB737A681D4B83FB0213D910D31734
:1041C000C91A0B469B000B449B00D11A0B467B730C
:1041D0000023FB73BB7B032B24D801A252F823F0EE
:1041E000F1410008F7410008FD41000803420008C2
:1041F0000023FB7308E04023FB7305E01423FB73EB
:1042000002E05423FB7300BFFA7B7B7B1344DBB2D9
:104210004033DBB20021184600F00AF8012002F01A
:10422000DDFE00E000BF1037BD4680BD67666666F4
:1042300080B582B000AF03463960FB7100226F2168
:10424000414805F0C1FC3B68012B05D1012240210A
:104250003D4805F0B9FC04E0002240213A4805F051
:10426000B3FC97F90730002B04DA01220821364805
:1042700005F0AAFCFB7903F04003002B04D00122D7
:104280000421314805F0A0FCFB7903F02003002B4A
:1042900004D0012202212C4805F096FCFB7903F0A2
:1042A0001003002B04D001220121274805F08CFCCB
:1042B00001222021244805F087FC012002F08EFE17
:1042C00000222021204805F07FFC00222F211E48DB
:1042D00005F07AFC012220211B4805F075FCFB79D2
:1042E00003F00803002B04D001220821164805F032
:1042F0006BFCFB7903F00403002B04D001220421A2
:10430000114805F061FCFB7903F00203002B04D097
:10431000012202210C4805F057FCFB7903F0010350
:10432000002B04D001220121074805F04DFC00229A
:104330002021054805F048FC012002F04FFE00BF97
:104340000837BD4680BD00BF0004024080B586B07E
:1043500000AFF860B9607A60BB68032B16D801A281
:1043600052F823F0754300087B430008814300089E
:10437000874300080023FB7508E04023FB7505E038
:104380001423FB7502E05423FB7500BF7B68DAB28F
:10439000FB7D1344FB75FB7D63F07F03FB75FB7DA9
:1043A00000211846FFF744FF042002F017FE002307
:1043B000BB7500233B6111E03B69FA6813441B782D
:1043C000BB75BB7D002B01D12023BB75BB7D0121BB
:1043D0001846FFF72DFF3B6901333B613B69132B07
:1043E000EADD00BF00BF1837BD4680BDB0B58AB05A
:1043F00000AF00F003FC02F0AFFD00F041F800F068
:104400009DFA00F06BFA00F015FA00F03DFA00F0AA
:104410003FF900F0A5F800F071F900F0BDF9FFF7E1
:1044200061FEFDF7EBFAFCF7E1FD02F063FA01F043
:10443000A3FD00233B6200237B6207F120030121DF
:10444000184609F027FC03460A4A13600A4B3C1D34
:104450001D460FCD0FC495E8070084E807003B1DFB
:104460000021184609F019FB0346044A136009F0BD
:10447000FDFAFEE7EC730020BC3602085471002000
:1044800080B594B000AF07F1200330220021184618
:1044900019F060FF07F10C0300221A605A609A605D
:1044A000DA601A610023BB602B4B1B6C2A4A43F075
:1044B00080531364284B1B6C03F08053BB60BB68B4
:1044C00000237B60254B1B68244A43F48043136020
:1044D000224B1B6803F480437B607B6801233B62B3
:1044E0004FF480337B620223BB634FF48003FB6392
:1044F00019233B644FF4A8737B640223BB64042339
:10450000FB6407F12003184605F078FB0346002BF7
:1045100001D000F057FB0F23FB6002233B61002317
:104520007B614FF4C053BB614FF48053FB6107F1D3
:104530000C030521184605F0D9FD0346002B01D0D8
:1045400000F040FB00224FF48001002005F0B4FE93
:1045500000BF5037BD4680BD0038024000700040AB
:1045600080B584B000AF3B4600221A605A609A6062
:10457000DA60454B454A1A60434B4FF480325A602B
:10458000414B00229A60404B01221A613E4B0022AF
:104590001A763D4B002283F820203B4B4FF080528F
:1045A000DA62394B4FF000629A62374B0022DA60D0
:1045B000354B0622DA61344B012283F83020324B2E
:1045C00001225A61304802F02DFD0346002B01D034
:1045D00000F0F8FA0A233B6001237B600723BB60ED
:1045E0003B461946284802F085FE0346002B01D0C1
:1045F00000F0E8FA0C233B6002237B603B4619463F
:10460000214802F077FE0346002B01D000F0DAFAD1
:104610000D233B6003237B603B4619461A4802F09A
:1046200069FE0346002B01D000F0CCFA03233B6067
:1046300004237B603B461946134802F05BFE0346A9
:10464000002B01D000F0BEFA04233B6005237B6001
:104650003B4619460C4802F04DFE0346002B01D0A4
:1046600000F0B0FA11233B6006237B603B461946FD
:10467000054802F03FFE0346002B01D000F0A2FAED
:1046800000BF1037BD4680BDA07200200020014051
:1046900080B500AF174B184A1A60164B4FF4827260
:1046A0005A60144B00229A60124B0022DA60114BC0
:1046B00000221A610F4B00225A610E4B4FF4007218
:1046C0009A610C4B0022DA610A4B00221A62094BF4
:1046D00000225A62074B00229A62064B0A22DA62D3
:1046E000044805F06DFF0346002B01D000F06AFA84
:1046F00000BF80BD48720020003C004080B586B0FD
:1047000000AF07F1080300221A605A609A60DA606D
:104710003B4600221A605A601D4B1E4A1A601C4B11
:1047200029225A601A4B00229A60194B42F20F72EA
:10473000DA60174B00221A61154B00229A61144867
:1047400006F0E6FC0346002B01D000F03BFA4FF4E4
:104750008053BB6007F1080319460D4806F008FFB7
:104760000346002B01D000F02DFA20233B600023EC
:104770007B603B461946064807F024F90346002BA8
:1047800001D000F01FFA00BF1837BD4680BD00BF42
:10479000007200200004004080B586B000AF07F131
:1047A000080300221A605A609A60DA603B460022D1
:1047B0001A605A601D4B1E4A1A601C4B29225A600F
:1047C0001A4B00229A60194B40F2E732DA60174B1D
:1047D00000221A61154B00229A61144806F098FCD9
:1047E0000346002B01D000F0EDF94FF48053BB607D
:1047F00007F1080319460D4806F0BAFE0346002BE0
:1048000001D000F0DFF920233B6000237B603B46B2
:104810001946064807F0D6F80346002B01D000F0F1
:10482000D1F900BF1837BD4680BD00BFB871002068
:104830000008004080B500AF114B124A1A60104BBF
:104840004FF416525A600E4B00229A600C4B002215
:10485000DA600B4B00221A61094B0C225A61084B9B
:1048600000229A61064B0022DA61054807F03AF906
:104870000346002B01D000F0A5F900BF80BD00BFAA
:10488000487300200010014080B500AF114B124A60
:104890001A60104B4FF416525A600E4B00229A6069
:1048A0000C4B0022DA600B4B00221A61094B0C22E0
:1048B0005A61084B00229A61064B0022DA610548D2
:1048C00007F010F90346002B01D000F07BF900BF80
:1048D00080BD00BFF07300200014014080B582B09D
:1048E00000AF00237B60144B1B6B134A43F480031F
:1048F0001363114B1B6B03F480037B607B68002206
:104900000521382003F072F8382003F08BF80022DC
:104910000521392003F06AF8392003F083F80022DA
:1049200005213A2003F062F83A2003F07BF800BF3B
:104930000837BD4680BD00BF0038024080B58CB04E
:1049400000AF07F11C0300221A605A609A60DA6017
:104950001A610023BB61834B1B6B824A43F0100337
:104960001363804B1B6B03F01003BB61BB69002317
:104970007B617C4B1B6B7B4A43F004031363794BD5
:104980001B6B03F004037B617B6900233B61754B68
:104990001B6B744A43F080031363724B1B6B03F071
:1049A00080033B613B690023FB606E4B1B6B6D4AD0
:1049B00043F0010313636B4B1B6B03F00103FB60BC
:1049C000FB680023BB60674B1B6B664A43F0020326
:1049D0001363644B1B6B03F00203BB60BB680023D3
:1049E0007B60604B1B6B5F4A43F0080313635D4BB6
:1049F0001B6B03F008037B607B68002201215A488F
:104A000005F0E2F800224CF27F41584805F0DCF84E
:104A100000224FF68071564805F0D6F800224FF478
:104A20007F41544805F0D0F800224FF4807152487D
:104A300005F0CAF801224FF400414B4805F0C4F8D4
:104A40007F23FB6100233B6201237B6207F11C0390
:104A50001946474804F008FE4FF46043FB61002309
:104A60003B6201237B6207F11C031946424804F0B4
:104A7000FBFD48F20103FB6101233B6200237B62E3
:104A80000023BB6207F11C031946374804F0ECFD14
:104A90004CF27F43FB6101233B6200237B620023D6
:104AA000BB6207F11C031946304804F0DDFD4FF6E8
:104AB0008073FB6101233B6200237B620023BB62A6
:104AC00007F11C0319462A4804F0CEFD4FF47F433A
:104AD000FB6101233B6200237B620023BB6207F181
:104AE0001C031946234804F0BFFD4FF48073FB619B
:104AF00001233B6200237B620023BB6207F11C039E
:104B000019461D4804F0B0FD4FF48073FB61022389
:104B10003B6200237B620023BB620023FB6207F140
:104B20001C031946104804F09FFD3F23FB6100233E
:104B30003B6202237B6207F11C0319460D4804F017
:104B400093FD4FF44073FB6100233B6201237B62C2
:104B500007F11C031946054804F086FD00BF3037F5
:104B6000BD4680BD00380240000002400004024003
:104B700000100240000C02400008024080B582B0E4
:104B800000AF786008F026FAFDF708F901F0F4F9B3
:104B900000F02CF800F01BF8012008F0CAFFF9E73C
:104BA00080B582B000AF78607B681B68044A93428E
:104BB00001D102F0F3F900BF0837BD4680BD00BF48
:104BC0000000014080B400AF72B600BFFEE780B5C0
:104BD00000AFFCF715FBFCF71BFA00F047FCFCF7F5
:104BE000A3FC012008F0A5FF00BF80BD80B400AF8A
:104BF00000BFBD465DF8047B7047000080B400AF85
:104C00000B4B0C4A1A600C4B0C4A1A600C4B0622D8
:104C10001A800C4B38221A80064B9B8A002B02D13B
:104C2000044B01229A8200BFBD465DF8047B7047A9
:104C30001C09002074740020200900202075002029
:104C4000240900202609002080B584B000AFF86058
:104C50007A601A460B467B8113467B72264BB3F86B
:104C6000923001339AB2244BA3F892207B68002B38
:104C700001D100233CE07B897A7A1946F86800F07C
:104C80003DF80346002B01D1002331E07B7A194621
:104C9000F86800F057F80346002B01D1002327E005
:104CA0007B7A1946F86800F073F80346002B07D1A9
:104CB0007B7A01227968F86800F09EF8034617E0D5
:104CC0007B897A7A1946F86800F03FF90346002B91
:104CD00007D17B7A03227968F86800F08DF80346E3
:104CE00006E07B7A1A467968F86800F063F90346B3
:104CF00018461037BD4680BD7474002080B487B05C
:104D000000AFF860B9601346FB71FB79002B01D14D
:104D1000012310E0FB6804331B781B02FA6805329C
:104D2000127813447B617B690633BA689A420CBFE0
:104D300001230023DBB218461C37BD465DF8047B17
:104D40007047000080B485B000AF78600B46FB7000
:104D50000023FB73FB78012B03D17B689B79FB73EA
:104D600005E0FB78002B02D17B681B78FB73FB7B93
:104D70009AB2064B9B8A9A420CBF01230023DBB2F6
:104D800018461437BD465DF8047B704774740020E4
:104D900080B485B000AF78600B46FB700023FB73D6
:104DA000FB78012B03D17B68DB79FB7305E0FB7893
:104DB000002B02D17B685B78FB73FB7B102B8CBFD5
:104DC00001220022D2B2002A0CD101229A40094BC2
:104DD0001340002B14BF01230023DBB2002B01D0B2
:104DE000012300E0002318461437BD465DF8047B1C
:104DF000704700BF5800010080B586B000AFF86072
:104E0000B96011461A460B46FB711346BB71FB682D
:104E10005B78FB75FB7D9BB207211846FCF7D8F940
:104E20000346FB75BB79002B1DD10023BB82FB68B9
:104E30001A78BB681A70BB680133FA7D1A70BB68B8
:104E40000233FA791A7007F1140303221946B8687D
:104E500000F032F8BB6803333A7D1A70BB68043344
:104E60007A7D1A701CE0BB79012B19D10822F968F0
:104E7000B86819F047FABB68043300221A70BB689F
:104E8000053303221A70BB6807331A78BB680733EF
:104E900062F07F02D2B21A70BB680833FA791A70D6
:104EA000BB79002B01D1052300E00923BB75BB7D35
:104EB00018461837BD4680BD80B489B000AFF86091
:104EC000B9601346FB714FF6FF73FB834AF201038F
:104ED0007B820023BB6123E0BB69FA6813441B7823
:104EE0009AB2FB8B5340FB8300237B6112E0FB8B68
:104EF00003F00103002B07D0FB8B5B08FB83FA8BCD
:104F00007B8A5340FB8302E0FB8B5B08FB837B695E
:104F100001337B617B69072BE9DDBB690133BB6131
:104F2000FB79BA699A42D7DBFB8B1B0A9AB2BB6842
:104F30000133D2B21A70FB8BDAB2BB681A7000BFB1
:104F40002437BD465DF8047B704780B586B000AF5E
:104F5000F860B9601346FB71FB79012B01D1012385
:104F600024E00023BB82BB68032B01DC00231DE08F
:104F7000BB68DBB2023BDAB207F114031946F868EA
:104F8000FFF79AFFBB68023BFA6813441A783B7D2F
:104F90009A4209D1BB68013BFA6813441A787B7DB9
:104FA0009A4201D1012300E00023DBB218461837F2
:104FB000BD4680BD80B588B002AFF860B9601346C9
:104FC000FB71FB79002B02D1FB685B7801E0FB6889
:104FD000DB79FB75FB7D033B0D2B49D801A252F811
:104FE00023F000BF1D500008375000087150000822
:104FF00051500008715000087150000871500008AD
:10500000715000087150000871500008715000087C
:10501000715000087150000861500008174B1A6861
:10502000174B1988FB7900930B46B968F86800F0B4
:1050300031F803461EE0134B1A68134B1988FB79AD
:1050400000930B46B968F86800F024F8034611E0B5
:10505000FA790E4BB968F86800F0DCF9034609E00C
:10506000FA790B4BB968F86800F0D4F9034601E00F
:1050700000BF002318461837BD4680BD1C0900201C
:10508000240900202009002026090020755200086C
:105090001953000880B588B000AFF860B9607A6035
:1050A0007B807B88013BFB8397F82830002B01D164
:1050B000022300E008231946F86800F082F803464E
:1050C000BB8397F82830002B01D1042300E00A238A
:1050D0001946F86800F075F803467B83BA8B7B8B22
:1050E00013445A1EFB8B9A4208DD97F8283002229F
:1050F000B968F868FFF780FE03465EE097F828304D
:10510000012B24D10822F968B86819F0FBF87B8BD1
:105110005B009BB203339AB2BB6804331946104656
:1051200000F06AF87B8BDAB2BB6808335200D2B267
:105130001A70BB8B5B007A68D018BB6809337A8B16
:10514000194600F069F87B8B5B00093335E0FB689A
:105150001B889AB2BB681A807B8BDAB2BB680233B9
:105160005200D2B21A70BB8B5B007A68D018BB6851
:1051700003337A8B194600F04FF800233B827B8B78
:10518000DBB25B00DBB20333DAB207F1100319467E
:10519000B868FFF791FE7B8B5B0003337B617B6913
:1051A000BA6813443A7C1A707B690133BA681344B5
:1051B0007A7C1A707B8B5B00053318462037BD461E
:1051C00080BD80B483B000AF78600B46FB70FB7885
:1051D0007A6813441B789BB21B029AB2FB780133A6
:1051E00079680B441B789BB213449BB218460C376A
:1051F000BD465DF8047B704780B582B000AF0346C2
:105200003960FB80BB1D01223968184600F004F8A4
:1052100000BF0837BD4680BD80B487B000AFF860DE
:10522000B9601346FB8000237B6100237B6114E09F
:105230007B69FA681A447B690133B9680B441278B8
:105240001A707B690133FA681A447B69B9680B44A8
:1052500012781A707B6902337B61FB885B007A6984
:105260009A42E5DB00BF00BF1C37BD465DF8047BFA
:105270007047000080B586B000AFF860B960134693
:10528000FB71234B1B88013BFB82FB79002B01D177
:10529000022300E008231946F868FFF792FF03464F
:1052A000BB82BA8AFB8A9A4207D9FB790222B96883
:1052B000F868FFF7A1FD034626E0FB79012B12D128
:1052C000FB6803F10A00134B1B68BA8A52001344AF
:1052D00001221946FFF7A0FF0C22F968B86819F0FF
:1052E00011F80C2310E0FB68181D0A4B1B68BA8AE2
:1052F0005200134401221946FFF78EFF0822F96875
:10530000B86818F0FFFF082318461837BD4680BD5F
:10531000240900201C09002080B586B000AFF86089
:10532000B9601346FB71394B1B88013BFB82FB794B
:10533000002B01D1022300E008231946F868FFF78B
:1053400040FF0346BB82FB79002B01D1042300E020
:105350000A231946F868FFF734FF03467B82BA8AAE
:105360007B8A13445A1EFB8A9A4207DDFB7902228C
:10537000B968F868FFF740FD034642E0FB79012B6E
:105380001DD10C22F968B86818F0BCFF7B8A023383
:105390009BB25B009AB2BB68043319461046FFF714
:1053A0002BFFFB6803F10D00194B1B68BA8A5200F2
:1053B00013447A8A1946FFF72FFF0C2321E00622B7
:1053C000F968B86818F09EFF00233B8207F11003CC
:1053D00006221946B868FFF76FFDBB6806333A7CB2
:1053E0001A70BB6807337A7C1A70FB68D81D084BAB
:1053F0001B68BA8A520013447A8A1946FFF70CFFD9
:10540000082318461837BD4680BD00BF2409002078
:105410001C09002080B586B000AFF860B9603B6021
:105420001346FB7100237B610F4B1B68002B16D0CA
:105430000D4B1B684FF47A71184608F05DFC03466B
:10544000002B0CD1FA793B68B968F8689847786105
:1054500000F0DAFD044B1B68184608F09BFC7B69E2
:1054600018461837BD4680BDEC73002080B500AFEC
:1054700000F0C8F900F054F9154B1B78002B08D147
:1054800000F012F90346002B20D0114B01221A70B4
:105490001DE000F0A9FC00F009FC00F021F800F08C
:1054A0002BFB00F009FA0B4B5B7A002B09D00A4B5F
:1054B0001B7803F00403DBB2002B02D0074B012260
:1054C0001A7000F0B9FB00F0B9FC00E000BF80BD2D
:1054D000607400203C740020187000205C74002070
:1054E00080B400AF684B5B7803F00403DBB2002BA1
:1054F0000CBF01230023D9B2644A137F61F3410337
:105500001377614B5B7803F00203DBB2002B0CBF17
:1055100001230023D9B25D4A137F61F3000313779F
:10552000594B1B7803F00103DBB2002B0CBF0123A6
:105530000023D9B2554A137F61F382031377524B8C
:105540001B78C3F34013D9B2504A137F61F3C303EE
:1055500013774D4B1B78C3F3C003D9B24B4A137F6B
:1055600061F304131377484B1B78C3F34003D9B29C
:10557000464A137F61F345131377444BDB8A03F0EC
:105580000103D9B2414A537F61F341035377404B42
:105590005B7A002B04D03D4A137F43F080031377DE
:1055A0003C4B5B7A002B04D0384A137F43F0400316
:1055B0001377394B1B78002B03D1384B1B78002B0A
:1055C00009D0324A137F6FF3C71313772F4A137F23
:1055D0006FF386131377324B1B7803F00103DBB2B2
:1055E000002B16D12E4B1B7803F00203DBB2002BED
:1055F0000FD1254B1B7803F01003DBB2002B08D131
:10560000214B1B7803F00403DBB2002B01D10123F3
:1056100000E0002303F00103D9B21C4A537F61F379
:10562000000353771F4BDB8F002B1ED01D4B1B79C4
:1056300003F00803DBB2002B0CBF01230023D9B217
:10564000124A537F61F3C3035377164B1B7903F060
:105650000403DBB2002B0CBF01230023D9B20B4A99
:10566000537F61F38203537709E0084A537F6FF356
:10567000C3035377054A537F6FF38203537700BF09
:10568000BD465DF8047B70471C700020207500202B
:10569000647400204C7400205B7400205A74002055
:1056A000187000207474002080B500AF184801F015
:1056B0002BF90346012B01D1002327E0154801F007
:1056C00023F90346012B01D100231FE0124801F00A
:1056D0001BF90346012B01D1002317E00F4B1B8F51
:1056E000002B02D10D4B0A221A870C4B5B8F002B2B
:1056F00002D10A4B0A225A87084B1B6C002B02D19D
:10570000064B3C221A6400F00BF80123184680BDBA
:10571000647400204C7400203C74002074740020D9
:1057200080B400AF2D4B1B7803F01003DBB2002BCD
:1057300008D12B4B1B7803F00203DBB2002B01D006
:10574000012300E00023DAB2264B1A72264B1B8F8E
:105750001A464FF47A7303FB02F31A46214B1A6080
:105760001E4B1B7803F00403DBB2002B08D11C4B4B
:105770001B7803F00103DBB2002B01D0012300E012
:105780000023DAB2194B1A72174B5B8F1A464FF48B
:105790007A7303FB02F31A46144B1A60144B1B78FE
:1057A000002B09D0134B1B78002B05D1124BDB8A41
:1057B000002B01D1012300E00023DAB20F4B1A7253
:1057C0000F4B1B684FF47A7202FB03F30B4A136012
:1057D00000BFBD465DF8047B704700BF1C70002011
:1057E0001870002064740020747400204C74002031
:1057F000617400205E740020207500203C7400203D
:105800003474002080B400AF264BDB8F002B06D011
:10581000244B1B79C3F30003DBB21A4605E0224B8D
:105820005B78C3F30003DBB21A46204B1A701D4BA2
:10583000DB8F002B07D01B4BD3ED027AFCEEE77A0F
:1058400017EE902A01E0174B1A6C194B1A60164B91
:105850001B7803F04003DBB2002B03D0114BDB8F2E
:10586000002B0AD00F4B1B7903F01003DBB2002B87
:1058700013D00C4BDB8F002B0FD00C4B1B78002B65
:105880000BD1084BDB8F002B04D0064A13796FF342
:1058900004131371074B01221A7000BFBD465DF857
:1058A000047B7047747400201C7000206174002019
:1058B000347400205C74002080B500AF00F0BAF8AA
:1058C0000346002B02D1474B00221A70454B1B7830
:1058D000002B03D1444B1B78002B3ED0434B1B784D
:1058E000002B0DD0424B1B7803F00203DBB2002BE0
:1058F00020D13F4B1B7803F00403DBB2002B19D1FE
:105900003A4B1B78002B0DD1394B1B7803F0080361
:10591000DBB2002B0ED1364B1B7803F01003DBB249
:10592000002B07D1334B1B78002B03D1324B1B7854
:10593000002B0BD02B4B1B78002B05D02F4B9B8AB9
:1059400001339AB22D4B9A8200F0C4F800F072F83D
:105950000346002B01D100F0BDF8224B1B78002B31
:1059600003D1214B1B78002B23D0254A13786FF3EA
:10597000820313701D4B1B78002B0AD0204A13782A
:1059800043F0010313701E4A13786FF34103137041
:1059900009E01B4A13786FF300031370184A137859
:1059A00043F002031370164A13786FF382031370E7
:1059B00015E0134A13786FF300031370104A13783D
:1059C0006FF34103137000F01DF8034603F0010369
:1059D000D9B20B4A137861F38203137000BF00BF82
:1059E00080BD00BF5E7400205F74002058740020EA
:1059F0001C7000203974002059740020207500208C
:105A00001870002080B483B000AF094B7B607B68C6
:105A10001B88002B0CBF01230023DBB27B807B881B
:105A2000DBB218460C37BD465DF8047B704700BFFB
:105A30003C75002080B483B000AF244B1B7F03F083
:105A40000803DBB2002B30D1204B1B7F03F0040393
:105A5000DBB2002B29D11D4B1B7F03F01003DBB2FF
:105A6000002B06D01A4B1B7803F00203DBB2002B8D
:105A70001BD1164B1B7F03F02003DBB2002B06D09B
:105A8000134B1B7803F00103DBB2002B0DD10F4B3E
:105A90001B7F23F07F03DBB2002B06D10B4B1B7F58
:105AA00003F04003DBB2002B01D0012300E0002310
:105AB000FB71FB79002B0CBF01230023DBB21846DE
:105AC0000C37BD465DF8047B704700BF2075002091
:105AD0001870002080B400AF054B00221A70054BEF
